:020000040800F2
:10000000580A0020C9000008F5040008F1020008A1
:1000100000000000000000000000000000000000E0
:10002000000000000000000000000000190A0008A5
:100030000000000000000000690500089D0A00089B
:10004000F900000800000000F9000008F9000008AD
:10005000F9000008F9000008F9000008F90000089C
:1000600000000000F9000008F9000008F90000088D
:10007000F9000008F9000008F9000008000000007D
:10008000B90C00080000000000000000F9000008A2
:10009000F9000008F9000008F9000008F90000085C
:1000A000F9000008F9000008F9000008DD11000857
:1000B000F90000080348854600F062F80048004750
:1000C0004D140008580A00200C4880F308880C489A
:1000D0000168090E0B4A914205D10B480B4901609A
:1000E0000B480C4901600C4880470C480047FEE76C
:1000F000FEE7FEE7FEE7FEE7FEE70000580A002005
:10010000040000001F000000181002400100000061
:100110000000014000000000A10A0008B50000082E
:1001200030B50B46014600202022012409E00D468F
:10013000D5409D4205D31D469540491B2546954017
:1001400040191546521E002DF1DC30BD03460B430D
:100150009B0703D009E008C9121F08C0042AFAD27D
:1001600003E00B780370401C491C521EF9D2704703
:10017000421C0178401C0029FBD1801A7047000006
:10018000064C0125064E05E0E36807CC2B430C3CEA
:1001900098471034B442F7D3FFF790FFBC1400081F
:1001A000DC14000810B5002000F064FB002000F013
:1001B00069FB084908480068FFF7B2FF40B20749E9
:1001C0000870002008567D21C900484300B2044948
:1001D000088010BD00127A000400002054000020A6
:1001E00056000020F0B50A4600210023002400BF7D
:1001F0003DE001258D402B4615681D402C469C4254
:1002000034D11579012D02D01579022D16D18568CA
:100210004F000326BE40B543856055794E00B5407A
:10022000866835438560858801268E40B543858084
:10023000858896798E40B6B23543858005684F0033
:100240000326BE40B543056015794E00B5400668EB
:1002500035430560C5684F000326BE40B543C56001
:10026000D5794E00B540C6683543C560491C102994
:10027000BFD3F0BDF0B5002300244D07EE0E1546A8
:10028000B5402B46CD10AE0005462035AD594E0782
:10029000F70E0F26BE40B543CE10B60007462037F6
:1002A000BD51CD10AE003D46AD591D432C46CD107D
:1002B000AD003E467451F0BD02460020138A0B404B
:1002C000002B01D0012000E000207047018570471D
:1002D0008161704710B504460448046001E000F0F5
:1002E00009F8024800680128F9DC10BD2C00002044
:1002F00000BFFEE70148024908607047AAAA000053
:100300000030004010B500F0D1FA2E4800780028E7
:100310001AD120212C48FFF7CFFF012814D100F07B
:1003200059FB012810D1FF20F530FFF7D3FF022140
:10033000012000F04FF8254908700020244908707A
:100340000120204908700AE080211F48FFF7B4FF10
:10035000012804D1042100F03DF81C490870194817
:100360000078012810D180211748FFF7A5FF012848
:100370000AD100F02FFB022806D00321002000F054
:1003800029F8124908700CE000F024FB022808D17B
:100390000421002000F01EF80C490870002000F035
:1003A000E4F840210848FFF787FF002808D10548F6
:1003B0000078012804D100F0D8F800200149087025
:1003C00010BD0000010000200004004800000020D3
:1003D0000200002070B504460D462E48007805281E
:1003E00007D0A1002C4A5058002100F0DDFC11205C
:1003F00070BD2A48005DA8424AD0042D0DD0274880
:10040000005D042809D0A100234A5058002100F0C3
:10041000CBFCFF20F530FFF75DFF20480555022D8E
:100420001FD0032D08D0042D30D1A1001A4A5058F6
:10043000002100F0B9FC2AE0002C05D1012149027D
:100440001748FFF743FF05E00121C9020920C00654
:10045000FFF73CFFA100104A5058012100F0A4FC16
:1004600015E0002C05D1012149020D48FFF730FFAE
:1004700005E00121C9020920C006FFF729FFA100FC
:10048000054A5058012100F08FFC00E000BF00BF7A
:100490000120ADE7180000201C00002024000020EF
:1004A000000800481CB501210520400400F06EF84A
:1004B0000E480090012168460171002181710121DF
:1004C000417169460920C006FFF78CFE01204002F9
:1004D0000090012168460171002181710121417163
:1004E00069460348FFF77EFE1CBD000004190000AA
:1004F000000800487047000000218278002A27D0B9
:10050000184A03231B02D21803789B109B00D15872
:1005100002789207D30EFF229A400B469343194666
:1005200042789207120E03789B07DB0E9A40114324
:100530000C4A03231B02D21803789B109B00D15056
:100540000278D306DB0E01229A40064B1A6007E0C0
:100550000278D306DB0E01229A40024B80331A60E8
:100560007047000000E100E0704710B50446002C21
:1005700005D104210920C006FFF7AAFE04E00421EA
:100580000920C006FFF7A2FE10BD0000002905D01B
:10059000054A52690243044B5A6104E0024A526917
:1005A0008243014B5A61704700100240002905D078
:1005B000054AD2690243044BDA6104E0024AD26977
:1005C0008243014BDA61704700100240002905D0D8
:1005D000054A12690243044B1A6104E0024A126997
:1005E0008243014B1A61704700100240002905D078
:1005F000054A92690243044B9A6104E0024A9269F7
:100600008243014B9A61704700100240002905D0D7
:10061000054AD2680243044BDA6004E0024AD26819
:100620008243014BDA60704700100240FEB5044679
:1006300000250026002002900190009000278648A7
:1006400040680C2108400546002D06D0042D07D037
:10065000082D08D00C2D2CD128E0804820602BE0FC
:100660007E48206028E07C4840680F2189040840CB
:100670000646794840680321C90308400290B00C3F
:10068000861C0298002803D17548374647430BE083
:100690007148C06A0007000F401C01906F48019923
:1006A000FFF73EFD70430746276005E06D48206078
:1006B00002E06A48206000BF00BF67484068F02140
:1006C000084005462D096848405D00902068009963
:1006D000C84060606048406807210902084005463C
:1006E0002D0A6148405D009061680098C140A1609A
:1006F0005948006BFF2101310840884202D05B4815
:10070000E0600DE0544840680121890308408842B8
:1007100003D0A0684008E06002E0A0688008E060C4
:100720004D48006B40210840402802D050482061CD
:1007300002E00120C00320614748006B10210840FF
:10074000102802D04548606101E02068606142489D
:10075000006B8007800F002802D1A068A06119E01B
:100760003D48006B8007800F012802D12068A061FE
:1007700010E03948006B8007800F022802D1800307
:10078000A06107E03448006B8007800F032801D187
:100790003248A0613048006B03210904084000285A
:1007A00002D1A068E06120E02B48006B032109041E
:1007B000084001210904884202D12068E06114E068
:1007C0002548006B0321090408400121490488429F
:1007D00002D18010E06108E01F48006B032109048A
:1007E0000840884201D11D48E0611B48006B03218D
:1007F00089040840002802D1A068206220E0164841
:10080000006B03218904084001218904884202D138
:100810002068206214E01048006B0321890408401E
:100820000121C904884202D10011206208E00A486F
:10083000006B032189040840884201D107482062E7
:100840000548006B80210840802802D0054860627E
:1008500000E06762FEBD00000010024000127A0056
:1008600000093D00006CDC0243000020809FD500A1
:10087000128000000021024A917011468870704772
:10088000001002400849096A49084900064A1162F5
:100890001146096A04229143034A11621146096A0A
:1008A00001431162704700000010024010B5802122
:1008B0002D48FFF701FD00280AD12C4800780028B8
:1008C00006D102210120FFF785FD294908700AE0C1
:1008D00080212548FFF7F0FC012804D10421FFF70F
:1008E00079FD2349087023480078002813D100F0CF
:1008F00071F801280FD080211B48FFF7DDFC01288B
:1009000009D11A480078002805D10221FFF762FDBD
:100910001749087027E000F05DF8012823D1154839
:10092000007800281FD11148007800281BD104212D
:10093000FFF750FD0E49087003210120FFF74AFD23
:100940000B4908700C48FFF7C5FC012007490870E7
:100950000421FFF73FFD0649087000231A4607A14E
:10096000094800F0E1FB10BD00040048020000202F
:100970000000002001000020B80B000052657365E4
:10098000745F456E64000000003801401CB5012111
:1009900011208004FFF7FAFDC02000900021684676
:1009A00001710121C1710321417169460748FFF7B7
:1009B00019FCE0200090002168460171C1710321FB
:1009C000417169460248FFF70DFC1CBD0014004848
:1009D0000004004810B540210E48FFF76DFC0028C8
:1009E00005D080210B48FFF767FC00280FD140217C
:1009F0000848FFF761FC002801D1012010BD8021CB
:100A00000448FFF759FC002801D10220F6E7002036
:100A1000F4E70000001400487047000011201D4951
:100A200008601D4840681C494860084640684860A6
:100A3000084640687F21C903884317494860084633
:100A400040680521C9040843134948600846006806
:100A50000121090608431049086000BF0E480068DC
:100A60000121490608400028F8D00B48406880085A
:100A70008000094948600846406802210843064949
:100A8000486000BF044840680C2108400828F9D19C
:100A90007047000000200240001002407047000034
:100AA00010B51B4800680121084319490860084631
:100AB00040681849084016494860084600681649C9
:100AC00008401349086008460068012189048843EA
:100AD0000F490860084640683F21090488430C49D3
:100AE00048600846C06A00090001C8620846006BF9
:100AF000FF2154318843064908630846406B40088B
:100B00004000486300208860FFF788FF10BD0000A8
:100B1000001002400CB8FFF8FFFFF6FE30B58BB0B6
:100B2000044601214804FFF731FD10200190022105
:100B30006846017203214172002181720121C17254
:100B400001A90920C006FFF74DFB04221146092028
:100B5000C006FFF78FFB01210802FFF727FD0921DF
:100B600068460184002141840A20604301461D48F3
:100B70000068FFF7D5FA80B2401E09900021684650
:100B8000018508A8817208A9174800F029FA03A86E
:100B900000F01CFA6021684681810121C181042195
:100BA00001820A20604301460E480068FFF7B8FA48
:100BB00085B2E80F40194010059002216846018374
:100BC00000214183FF21013181830021C18303A9D9
:100BD000054800F0B1F90121034800F0F3F80BB02B
:100BE00030BD0000040000200020004030B58BB074
:100BF000044601214804FFF7C9FC4020019002216E
:100C00006846017203214172002181720121C17283
:100C100001A90920C006FFF7E5FA052206210920EF
:100C2000C006FFF727FB01214804FFF7DFFC09217D
:100C300068460184002141840A20604301461C4823
:100C40000068FFF76DFA80B2401E099000216846E7
:100C5000018508A9174800F0C3F903A800F0B6F908
:100C60006021684681810121C181042101820A201D
:100C7000604301460E480068FFF752FA85B2E80F5C
:100C800040194010059002216846018300214183EC
:100C9000FF21013181830021C18303A9054800F0B0
:100CA0004BF90121034800F08DF80BB030BD000076
:100CB000040000200044014010B50121104800F05C
:100CC00015F900281BD001210D4800F06AF80D48E5
:100CD0000088401C0B4908800B4800680B4988427B
:100CE00004D209480068401C0749086008480068A9
:100CF000002804D006480068401E0549086010BD61
:100D000000040040280000203000002010270000D0
:100D10002C0000201FB501210220FFF747FC1648D8
:100D200000F062F8144800F0FFF80021124800F0CB
:100D300027F817216846818000218181C1800F48F2
:100D4000029001A90C4800F04BF901210A4800F07B
:100D500025F801221146084800F0DBF80121064879
:100D600000F022F810216846017001214170817065
:100D7000FFF7C2FB1FBD000000040040CF070000CA
:100D8000002904D0028880231A43028003E00288ED
:100D9000014B1A40028070477FFF0000CA43028265
:100DA0007047CA4302827047002904D00288012399
:100DB0001A43028003E00288014B1A400280704708
:100DC000FEFF0000002907D04422125A0123DB0352
:100DD0001A4344231A5205E04422125A53045B0C6E
:100DE000442213527047000010B50446374884422D
:100DF00008D10121C014FFF709FC0021E014FFF71E
:100E000005FC62E001208007844208D101210846E8
:100E1000FFF7DCFB00210120FFF7D8FB55E02C4851
:100E2000844208D101210220FFF7D0FB00210220DB
:100E3000FFF7CCFB49E02748844208D1012110206C
:100E4000FFF7C4FB00211020FFF7C0FB3DE0224864
:100E5000844208D101212020FFF7B8FB0021202087
:100E6000FFF7B4FB31E01D48844208D10121801511
:100E7000FFF7ACFB0021A015FFF7A8FB25E0184801
:100E8000844209D101210804FFF7C0FB00210120A1
:100E90000004FFF7BBFB18E01248844209D101218E
:100EA0004804FFF7B3FB002101204004FFF7AEFB2D
:100EB0000BE00D48844208D101218804FFF7A6FB0E
:100EC000002101208004FFF7A1FB10BD002C014090
:100ED00000040040001000400014004000200040CA
:100EE00000400140004401400048014030B5024646
:100EF000002000230024158A0D402B4695890D40C3
:100F00002C46002B03D0002C01D0012000E0002053
:100F100030BD002A03D083890B43838102E083899B
:100F20008B438381704700000189024A114001818F
:100F300070470000F8FF000070B500240022002375
:100F4000058C1C4E35400584028C8388048B194D1A
:100F50006F3D2C40B51E2C400D882C43751E2A4039
:100F60008D892A434D882A43134DA84208D0134D3A
:100F7000A84205D0124DA84202D0124DA84212D16B
:100F80000C4DED1F2A40CD892A430A4DED1E2A4003
:100F90008D882A43074DFF3D2B400B4D2B400D8A7A
:100FA0002B434D8A2B43838004838D6845630284E1
:100FB00070BD0000FEFF0000002C01400040014019
:100FC0000044014000480140FFFD00000021018075
:100FD0004180818081608181C1810182418270472D
:100FE00000220288154B984206D001239B079842A5
:100FF00002D0134B984203D1124B1A404B881A432C
:10100000114B984203D0114B1A400B891A430280AE
:101010004B68C3620B880385084B984208D00C4B81
:10102000984205D00B4B984202D00B4B984201D10D
:101030008B7A03860123838270470000002C0140D5
:10104000000400408FFF000000100040FFFC000083
:1010500000400140004401400048014030B589B0E3
:1010600004460D4601214804FFF790FA2C488442BB
:1010700015D101218803FFF7B9FA01220921C80619
:10108000FFF7F8F801220A210920C006FFF7F2F85D
:101090000320400201901B206946087014E00121E2
:1010A0004804FFF783FA012202210920C006FFF756
:1010B000E1F8012203210920C006FFF7DBF80C202C
:1010C00001901C20694608700221684601720121C6
:1010D000417200218172C17201A90920C006FFF787
:1010E00081F800216846417001218170FFF704FA00
:1010F0000395002004900590069008900C2007901E
:1011000003A9204600F00EF901220649204600F00E
:10111000E7F80121204600F0A6F8012009B030BD13
:101120000038014005010500FFB583B00F461546A4
:101130000197002D03D10198FFF71AF885B20698A0
:10114000002806D12C46224620480199FEF7FEFFD2
:1011500015E0062422461E491C48FEF7F7FF1B49EE
:1011600008192A460199FEF7F1FF601984B2174960
:10117000081904221749FEF7E9FF201D84B2002652
:101180001FE01248815D039800F04DF900200290A5
:101190000FE00298401C80B202907D21C9000E48E9
:1011A0000068FEF7BDFF0299884202D1042007B013
:1011B000F0BD8021039800F062F80028E9D0701C8F
:1011C00086B2A642DDDB0120F1E7000058040020D2
:1011D000370000203D0000200400002010B5164913
:1011E000164800F037F81649144800F052F8002865
:1011F00021D0124800F012F9C4B2124812490988ED
:10120000445411480088401C0F4908800846008853
:101210000121490288420BDB0B480088401E0A4925
:10122000088007200949087000200949088002E069
:1012300001200749088010BD000303000038014069
:101240000501050058000020340000203600002071
:101250002800002010B5002300220B0C01249C4024
:101260002246026210BD002904D0026801231A43FD
:10127000026003E0026852085200026070470246B2
:101280000020D3690B40002B01D0012000E000209A
:10129000704770B502460B4600240021002500204F
:1012A0001E04350ED9B201268E403146012D02D1E1
:1012B0001668314006E0022D02D15668314001E047
:1012C000966831401C0C0126A6403446D66934404D
:1012D000002903D0002C01D0012000E0002070BDC7
:1012E000F8B5034600240026009600250020184685
:1012F0000E04340ECEB200960127009EB7403D4644
:10130000022C01D1001D02E0032C00D10830002A7C
:1013100003D006682E43066002E00668AE4306600E
:10132000F8BD0000F0B58BB004460D460027002044
:101330000A9000262068400840002060666803216B
:101340000903304688430646A86806436660266857
:101350002D480640E9686868084329690843064340
:101360002660A6680321090230468843064668695C
:101370000643A6606846FFF759F92448844202D123
:1013800006980A900DE02248844202D107980A90FC
:1013900007E02048844202D108980A9001E00298B0
:1013A0000A9020680121C903084000280CD0296850
:1013B0000A9A5000FEF7B4FE074629680A9A5000C0
:1013C000FEF7AEFE0E4609E029680A98FEF7A8FE71
:1013D000074629680A98FEF7A3FE0E4628684008CB
:1013E000B04200D87F1C20680121C90308400028B2
:1013F00006D03807460F38460749084030430746AD
:10140000A7810BB0F0BD0000F3E9FFFF00380140F9
:101410000044004000480040F0FF00000146888C76
:10142000C005C00D7047CA05D20D0285704702E0A5
:1014300008C8121F08C1002AFAD17047704700205F
:1014400001E001C1121F002AFBD17047FEF7AAFE7E
:10145000FFF760FC7D20C000FFF760FB0F48FFF73F
:10146000C5FB4B21C9010E48FFF7F8FD00231A46C2
:101470000CA10B48FFF758FEFFF788FAFFF712F8A8
:101480000AE00D480068632804D9FEF73BFF0020FE
:1014900009490860FEF72EFFF3E70000102700005F
:1014A0000038014058482D57617264726F62652D93
:1014B00056322E350000000030000020DC140008F9
:1014C00000000020580000002E1400083415000809
:1014D00058000020000A00003E1400080000000030
:1014E000006CDC02000000000000000001020304A8
:1014F00006070809050000000020004000440140E4
:1015000004040000010000000000000001000000D1
:10151000000001534473457300455458000503000F
:101520000000000102030401020304060708090089
:0415300000000000B7
:04000005080000B53A
:00000001FF
