:020000040800F2
:10000000600A0020C90000081D050008F102000870
:1000100000000000000000000000000000000000E0
:10002000000000000000000000000000510A00086D
:10003000000000000000000091050008D50A00083B
:10004000F900000800000000F9000008F9000008AD
:10005000F9000008F9000008F9000008F90000089C
:1000600000000000F9000008F9000008F90000088D
:10007000F9000008F9000008F9000008000000007D
:10008000F10C00080000000000000000F90000086A
:10009000F9000008F9000008F9000008F90000085C
:1000A000F9000008F9000008F90000081D12000816
:1000B000F90000080348854600F062F80048004750
:1000C0008D140008600A00200C4880F308880C4852
:1000D0000168090E0B4A914205D10B480B4901609A
:1000E0000B480C4901600C4880470C480047FEE76C
:1000F000FEE7FEE7FEE7FEE7FEE70000600A0020FD
:10010000040000001F000000181002400100000061
:100110000000014000000000D90A0008B5000008F6
:1001200030B50B46014600202022012409E00D468F
:10013000D5409D4205D31D469540491B2546954017
:1001400040191546521E002DF1DC30BD03460B430D
:100150009B0703D009E008C9121F08C0042AFAD27D
:1001600003E00B780370401C491C521EF9D2704703
:10017000421C0178401C0029FBD1801A7047000006
:10018000064C0125064E05E0E36807CC2B430C3CEA
:1001900098471034B442F7D3FFF790FFFC140008DF
:1001A0001C15000810B5002000F078FB002000F0BE
:1001B0007DFB084908480068FFF7B2FF40B20749D5
:1001C0000870002008567D21C900484300B2044948
:1001D000088010BD00127A0008000020580000209E
:1001E0005A000020F0B50A4600210023002400BF79
:1001F0003DE001258D402B4615681D402C469C4254
:1002000034D11579012D02D01579022D16D18568CA
:100210004F000326BE40B543856055794E00B5407A
:10022000866835438560858801268E40B543858084
:10023000858896798E40B6B23543858005684F0033
:100240000326BE40B543056015794E00B5400668EB
:1002500035430560C5684F000326BE40B543C56001
:10026000D5794E00B540C6683543C560491C102994
:10027000BFD3F0BDF0B5002300244D07EE0E1546A8
:10028000B5402B46CD10AE0005462035AD594E0782
:10029000F70E0F26BE40B543CE10B60007462037F6
:1002A000BD51CD10AE003D46AD591D432C46CD107D
:1002B000AD003E467451F0BD02460020138A0B404B
:1002C000002B01D0012000E000207047018570471D
:1002D0008161704710B504460448046001E000F0F5
:1002E00009F8024800680128F9DC10BD3000002040
:1002F00000BFFEE70148024908607047AAAA000053
:100300000030004010B500F0E5FA354800780028CC
:100310001AD120213348FFF7CFFF012814D100F074
:1003200075FB012810D1FF20F530FFF7D3FF022124
:10033000012000F063F82C49087000202B49087058
:100340000120274908700AE080212648FFF7B4FF02
:10035000012804D1042100F051F8234908702048F5
:100360000078012810D180211E48FFF7A5FF012841
:100370000AD100F04BFB022806D00321002000F038
:100380003DF81949087010E000F040FB02280CD13C
:1003900013480078012808D10421002000F02EF82D
:1003A00011490870002000F0F4F840210D48FFF7D3
:1003B00083FF002813D10A48007801280FD100F0EC
:1003C00025FB02280BD1012000F0E3F800200449AE
:1003D000087000231A4606A1074800F0C5FE10BDAC
:1003E000010000200004004800000020020000205E
:1003F0004F75745F456E64000038014070B5044667
:100400000D462E480078052807D0A1002C4A5058E8
:10041000002100F0E9FC112070BD2A48005DA842CF
:100420004AD0042D0DD02748005D042809D0A10032
:10043000234A5058002100F0D7FCFF20F530FFF789
:1004400049FF20480555022D1FD0032D08D0042D4B
:1004500030D1A1001A4A5058002100F0C5FC2AE012
:10046000002C05D1012149021748FFF72FFF05E0B5
:100470000121C9020920C006FFF728FFA100104A88
:100480005058012100F0B0FC15E0002C05D10121ED
:1004900049020D48FFF71CFF05E00121C9020920B0
:1004A000C006FFF715FFA100054A5058012100F0D2
:1004B0009BFC00E000BF00BF0120ADE71C00002056
:1004C0002000002028000020000800481CB5012161
:1004D0000520400400F06EF80E48009001216846A7
:1004E0000171002181710121417169460920C00615
:1004F000FFF778FE0120400200900121684601715B
:10050000002181710121417169460348FFF76AFEAC
:100510001CBD0000041900000008004870470000DE
:1005200000218278002A27D0184A03231B02D21800
:1005300003789B109B00D15802789207D30EFF22BC
:100540009A400B469343194642789207120E03785D
:100550009B07DB0E9A4011430C4A03231B02D2185F
:1005600003789B109B00D1500278D306DB0E01224A
:100570009A40064B1A6007E00278D306DB0E012290
:100580009A40024B80331A607047000000E100E09F
:10059000704710B50446002C05D104210920C0067F
:1005A000FFF796FE04E004210920C006FFF78EFE47
:1005B00010BD0000002905D0054A52690243044BD2
:1005C0005A6104E0024A52698243014B5A61704702
:1005D00000100240002905D0054AD2690243044BAD
:1005E000DA6104E0024AD2698243014BDA61704762
:1005F00000100240002905D0054A12690243044B4D
:100600001A6104E0024A12698243014B1A61704781
:1006100000100240002905D0054A92690243044BAC
:100620009A6104E0024A92698243014B9A617047E1
:1006300000100240002905D0054AD2680243044B4D
:10064000DA6004E0024AD2688243014BDA60704704
:1006500000100240FEB5044600250026002002904E
:10066000019000900027864840680C21084005460C
:10067000002D06D0042D07D0082D08D00C2D2CD12C
:1006800028E0804820602BE07E48206028E07C48FD
:1006900040680F21890408400646794840680321D4
:1006A000C90308400290B00C861C0298002803D1B0
:1006B0007548374647430BE07148C06A0007000F92
:1006C000401C01906F480199FFF72AFD70430746CF
:1006D000276005E06D48206002E06A48206000BFA6
:1006E00000BF67484068F021084005462D0968486A
:1006F000405D009020680099C84060606048406894
:1007000007210902084005462D0A6148405D009016
:1007100061680098C140A1605948006BFF21013118
:100720000840884202D05B48E0600DE054484068D1
:10073000012189030840884203D0A0684008E06096
:1007400002E0A0688008E0604D48006B402108404E
:10075000402802D05048206102E00120C0032061FF
:100760004748006B10210840102802D045486061BE
:1007700001E0206860614248006B8007800F00281C
:1007800002D1A068A06119E03D48006B8007800F8E
:10079000012802D12068A06110E03948006B800771
:1007A000800F022802D18003A06107E03448006B6B
:1007B0008007800F032801D13248A0613048006BC8
:1007C000032109040840002802D1A068E06120E06C
:1007D0002B48006B032109040840012109048842C9
:1007E00002D12068E06114E02548006B0321090470
:1007F000084001214904884202D18010E06108E0EC
:100800001F48006B032109040840884201D11D489C
:10081000E0611B48006B032189040840002802D1D5
:10082000A068206220E01648006B0321890408407C
:1008300001218904884202D12068206214E0104816
:10084000006B0321890408400121C904884202D1B8
:100850000011206208E00A48006B03218904084067
:10086000884201D1074820620548006B802108407A
:10087000802802D00548606200E06762FEBD00008B
:100880000010024000127A0000093D00006CDC02FA
:1008900047000020809FD500128000000021024AFE
:1008A0009170114688707047001002400849096A2B
:1008B00049084900064A11621146096A0422914317
:1008C000034A11621146096A014311627047000030
:1008D0000010024010B580213148FFF7EDFC0028E0
:1008E0000AD130480078002806D102210120FFF704
:1008F00085FD2D4908700AE080212948FFF7DCFCBE
:10090000012804D10421FFF779FD27490870274801
:100910000078002813D100F079F801280FD0802149
:100920001F48FFF7C9FC012809D11E48007800289C
:1009300005D10221FFF762FD1B4908702EE000F08F
:1009400065F801282AD119480078002826D11548D1
:100950000078002822D180211148FFF7ADFC012842
:100960001CD104210020FFF749FD0F490870032125
:100970000120FFF743FD0C4908700D48FFF7AAFC62
:100980000120084908700421FFF738FD0649087066
:1009900000231A4607A10A4800F0E6FB10BD00003C
:1009A0000004004802000020000000200100002098
:1009B000B80B000052657365745F456E64000000FB
:1009C000003801401CB5012111208004FFF7F2FD21
:1009D000C02000900021684601710121C1710321EE
:1009E000417169460748FFF7FDFBE02000900021B8
:1009F00068460171C1710321417169460248FFF7E0
:100A0000F1FB1CBD001400480004004810B5402153
:100A10000E48FFF751FC002805D080210B48FFF756
:100A20004BFC00280FD140210848FFF745FC002867
:100A300001D1012010BD80210448FFF73DFC0028B2
:100A400001D10220F6E70020F4E70000001400487E
:100A50007047000011201D4908601D4840681C496E
:100A60004860084640684860084640687F21C903DE
:100A7000884317494860084640680521C90408436F
:100A800013494860084600680121090608431049D7
:100A9000086000BF0E480068012149060840002890
:100AA000F8D00B4840688008800009494860084633
:100AB0004068022108430649486000BF0448406876
:100AC0000C2108400828F9D170470000002002409E
:100AD000001002407047000010B51B48006801215B
:100AE00008431949086008464068184908401649F3
:100AF00048600846006816490840134908600846DF
:100B000000680121890488430F490860084640684D
:100B10003F21090488430C4948600846C06A00091F
:100B20000001C8620846006BFF2154318843064922
:100B300008630846406B4008400048630020886016
:100B4000FFF788FF10BD0000001002400CB8FFF84E
:100B5000FFFFF6FE30B58BB0044601214804FFF7D5
:100B600029FD102001900221684601720321417283
:100B7000002181720121C17201A90920C006FFF77D
:100B800031FB042211460920C006FFF773FB012147
:100B90000802FFF71FFD09216846018400214184F6
:100BA0000A20604301461D480068FFF7B9FA80B289
:100BB000401E099000216846018508A8817208A995
:100BC000174800F02DFA03A800F020FA60216846CB
:100BD00081810121C181042101820A2060430146F3
:100BE0000E480068FFF79CFA85B2E80F40194010E4
:100BF000059002216846018300214183FF210131D4
:100C000081830021C18303A9054800F0B5F90121C2
:100C1000034800F0F7F80BB030BD000008000020DA
:100C20000020004030B58BB0044601214804FFF796
:100C3000C1FC4020019002216846017203214172EB
:100C4000002181720121C17201A90920C006FFF7AC
:100C5000C9FA052206210920C006FFF70BFB012176
:100C60004804FFF7D7FC092168460184002141842C
:100C70000A20604301461C480068FFF751FA80B221
:100C8000401E099000216846018508A9174800F018
:100C9000C7F903A800F0BAF96021684681810121F3
:100CA000C181042101820A20604301460E48006888
:100CB000FFF736FA85B2E80F40194010059002217F
:100CC0006846018300214183FF2101318183002196
:100CD000C18303A9054800F04FF90121034800F042
:100CE00091F80BB030BD0000080000200044014026
:100CF00010B50121124800F019F900281FD0012178
:100D00000F4800F06EF80F480088002804DD0D48F9
:100D10000088401C0B4908800B4800680B4988423A
:100D200004D209480068401C074908600848006868
:100D3000002804D006480068401E0549086010BD20
:100D4000000400402C000020340000201027000088
:100D5000300000201FB501210220FFF73BFC1648A0
:100D600000F062F8144800F0FFF80021124800F08B
:100D700027F817216846818000218181C1800F48B2
:100D8000029001A90C4800F04BF901210A4800F03B
:100D900025F801221146084800F0DBF80121064839
:100DA00000F022F810216846017001214170817025
:100DB000FFF7B6FB1FBD000000040040CF07000096
:100DC000002904D0028880231A43028003E00288AD
:100DD000014B1A40028070477FFF0000CA43028225
:100DE0007047CA4302827047002904D00288012359
:100DF0001A43028003E00288014B1A4002807047C8
:100E0000FEFF0000002907D04422125A0123DB0311
:100E10001A4344231A5205E04422125A53045B0C2D
:100E2000442213527047000010B5044637488442EC
:100E300008D10121C014FFF7FDFB0021E014FFF7EA
:100E4000F9FB62E001208007844208D101210846B5
:100E5000FFF7D0FB00210120FFF7CCFB55E02C4829
:100E6000844208D101210220FFF7C4FB00210220A7
:100E7000FFF7C0FB49E02748844208D10121102038
:100E8000FFF7B8FB00211020FFF7B4FB3DE022483C
:100E9000844208D101212020FFF7ACFB0021202053
:100EA000FFF7A8FB31E01D48844208D101218015DD
:100EB000FFF7A0FB0021A015FFF79CFB25E01848D9
:100EC000844209D101210804FFF7B4FB002101206D
:100ED0000004FFF7AFFB18E01248844209D101215A
:100EE0004804FFF7A7FB002101204004FFF7A2FB05
:100EF0000BE00D48844208D101218804FFF79AFBDA
:100F0000002101208004FFF795FB10BD002C01405B
:100F10000004004000100040001400400020004089
:100F200000400140004401400048014030B5024605
:100F3000002000230024158A0D402B4695890D4082
:100F40002C46002B03D0002C01D0012000E0002013
:100F500030BD002A03D083890B43838102E083895B
:100F60008B438381704700000189024A114001814F
:100F700070470000F8FF000070B500240022002335
:100F8000058C1C4E35400584028C8388048B194DDA
:100F90006F3D2C40B51E2C400D882C43751E2A40F9
:100FA0008D892A434D882A43134DA84208D0134DFA
:100FB000A84205D0124DA84202D0124DA84212D12B
:100FC0000C4DED1F2A40CD892A430A4DED1E2A40C3
:100FD0008D882A43074DFF3D2B400B4D2B400D8A3A
:100FE0002B434D8A2B43838004838D6845630284A1
:100FF00070BD0000FEFF0000002C014000400140D9
:101000000044014000480140FFFD00000021018034
:101010004180818081608181C181018241827047EC
:1010200000220288154B984206D001239B07984264
:1010300002D0134B984203D1124B1A404B881A43EB
:10104000114B984203D0114B1A400B891A4302806E
:101050004B68C3620B880385084B984208D00C4B41
:10106000984205D00B4B984202D00B4B984201D1CD
:101070008B7A03860123838270470000002C014095
:10108000000400408FFF000000100040FFFC000043
:1010900000400140004401400048014030B589B0A3
:1010A00004460D4601214804FFF784FA2C48844287
:1010B00015D101218803FFF7ADFA01220921C806E5
:1010C000FFF7D8F801220A210920C006FFF7D2F85D
:1010D0000320400201901B206946087014E00121A2
:1010E0004804FFF777FA012202210920C006FFF722
:1010F000C1F8012203210920C006FFF7BBF80C202C
:1011000001901C2069460870022168460172012185
:10111000417200218172C17201A90920C006FFF746
:1011200061F800216846417001218170FFF7F8F9EC
:101130000395002004900590069008900C200790DD
:1011400003A9204600F00EF901220649204600F0CE
:10115000E7F80121204600F0A6F8012009B030BDD3
:101160000038014005010500FFB583B00F46154664
:101170000197002D03D10198FEF7FAFF85B206987A
:10118000002806D12C46224620480199FEF7DEFFB2
:1011900015E0062422461E491C48FEF7D7FF1B49CE
:1011A00008192A460199FEF7D1FF601984B2174940
:1011B000081904221749FEF7C9FF201D84B2002632
:1011C0001FE01248815D039800F04DF90020029065
:1011D0000FE00298401C80B202907D21C9000E48A9
:1011E0000068FEF79DFF0299884202D1042007B0F3
:1011F000F0BD8021039800F062F80028E9D0701C4F
:1012000086B2A642DDDB0120F1E700005C0400208D
:101210003B000020410000200800002010B51649C6
:10122000164800F037F81649144800F052F8002824
:1012300021D0124800F012F9C4B2124812490988AC
:10124000445411480088401C0F4908800846008813
:101250000121490288420BDB0B480088401E0A49E5
:10126000088007200949087000200949088002E029
:1012700001200749088010BD000303000038014029
:10128000050105005C000020380000203A00002025
:101290002C00002010B5002300220B0C01249C40E0
:1012A0002246026210BD002904D0026801231A43BD
:1012B000026003E002685208520002607047024672
:1012C0000020D3690B40002B01D0012000E000205A
:1012D000704770B502460B4600240021002500200F
:1012E0001E04350ED9B201268E403146012D02D1A1
:1012F0001668314006E0022D02D15668314001E007
:10130000966831401C0C0126A6403446D66934400C
:10131000002903D0002C01D0012000E0002070BD86
:10132000F8B5034600240026009600250020184644
:101330000E04340ECEB200960127009EB7403D4603
:10134000022C01D1001D02E0032C00D10830002A3C
:1013500003D006682E43066002E00668AE430660CE
:10136000F8BD0000F0B58BB004460D460027002004
:101370000A9000262068400840002060666803212B
:101380000903304688430646A86806436660266817
:101390002D480640E9686868084329690843064300
:1013A0002660A6680321090230468843064668691C
:1013B0000643A6606846FFF74DF92448844202D1EF
:1013C00006980A900DE02248844202D107980A90BC
:1013D00007E02048844202D108980A9001E0029870
:1013E0000A9020680121C903084000280CD0296810
:1013F0000A9A5000FEF794FE074629680A9A5000A0
:10140000FEF78EFE0E4609E029680A98FEF788FE70
:10141000074629680A98FEF783FE0E4628684008AA
:10142000B04200D87F1C20680121C9030840002871
:1014300006D03807460F384607490840304307466C
:10144000A7810BB0F0BD0000F3E9FFFF00380140B9
:101450000044004000480040F0FF00000146888C36
:10146000C005C00D7047CA05D20D0285704702E065
:1014700008C8121F08C1002AFAD17047704700201F
:1014800001E001C1121F002AFBD17047FEF78AFE5E
:10149000FFF760FC7D20C000FFF75CFB0F48FFF703
:1014A000C1FB4B21C9010E48FFF7F8FD00231A4686
:1014B0000CA10B48FFF758FEFFF784FAFFF706F878
:1014C0000AE00D480068632804D9FEF71BFF0120DD
:1014D00009490860FEF70EFFF3E70000102700003F
:1014E0000038014058482D57617264726F62652D53
:1014F00056322E3500000000340000201C15000874
:10150000000000205C0000006E1400087815000840
:101510005C000020040A00007E14000800000000A7
:1015200000000000006CDC02000000000000000071
:10153000010203040607080905000000002000401E
:10154000004401400404000001000000000000000D
:1015500001000000000001534473457300455458D6
:101560000005030000000001020304010203040659
:0815700007080900000000005B
:04000005080000B53A
:00000001FF
